:100000000C9434000C94EF000C9446000C944600C1
:100010000C9446000C9446000C9446000C94460048
:100020000C9446000C9446000C9446000C94460038
:100030000C9446000C9446000C9446000C94460028
:100040000C94FE000C9446000C9446000C94460060
:100050000C9446000C9446000C9446000C94460008
:100060000C9446000C94460011241FBECFEFD8E03C
:10007000DEBFCDBF11E0A0E0B1E001C01D92A33012
:10008000B107E1F70E9413010C942F010C940000BA
:100090002FEF80E792E0215080409040E1F700C0D0
:1000A000000081E0089529B130E002C03595279520
:1000B0008A95E2F7822F809581700895CF93C82F9B
:1000C0000E945300882391F02FEF80E792E02150A7
:1000D00080409040E1F700C000008C2F0E94530048
:1000E00091E0811101C090E0892F01C080E0CF91A3
:1000F000089580910101909102018130910549F1AB
:1001000088F18230910541F00397A1F584E00E94C7
:100110005E00882379F115C084E00E945E00882388
:1001200081F05D9A5E9A5F9A82E00E94530081118D
:10013000FBCF5F9883E090E09093020180930101F0
:10014000089510920201109201015D985E985F98E7
:10015000089582E090E090930201809301015D9AFE
:100160005E9A089581E090E09093020180930101EE
:100170005D9A5E98089588EE8AB98CE18BB9E9E6BC
:10018000F0E0808183608083E89AEEE6F0E0808191
:1001900081608083A89A16BC85E085BD08951AB851
:1001A00017B814B815B818B884E08BB983B7817F35
:1001B000866083BFF89483B7816083BF7894889505
:1001C00083B78E7F83BF0E94BB002FEF80E792E052
:1001D000215080409040E1F700C0000008951F9238
:1001E0000F920FB60F9211248F938FEF809300011F
:1001F0008F910F900FBE0F901F9018951F920F9226
:100200000FB60F9211248F9380910001882329F05B
:10021000809100018150809300018F910F900FBE5B
:100220000F901F9018950E94BB0078948091010157
:1002300090910201892B31F480910001811102C05B
:100240000E94CF0082E00E945E00882379F30E9422
:10025000790082E00E9453008111FBCFE7CFF89430
:02026000FFCFCE
:00000001FF
