:100000000C9434000C94E0000C9446000C944600D0
:100010000C9446000C9446000C9446000C94460048
:100020000C9446000C9446000C9446000C94460038
:100030000C9446000C9446000C9446000C94460028
:100040000C94EF000C9446000C9446000C9446006F
:100050000C9446000C9446000C9446000C94460008
:100060000C9446000C94460011241FBECFEFD8E03C
:10007000DEBFCDBF11E0A0E0B1E001C01D92A23013
:10008000B107E1F70E9404010C941E010C940000DA
:100090002FE788E391E0215080409040E1F700C0D5
:1000A000000081E0089529B130E002C03595279520
:1000B0008A95E2F7822F809581700895CF93C82F9B
:1000C0000E945300882391F02FE788E391E02150AC
:1000D00080409040E1F700C000008C2F0E94530048
:1000E00091E0811101C090E0892F01C080E0CF91A3
:1000F000089580910101813019F140F1823041F081
:10010000833049F584E00E945E00882321F112C00B
:1001100084E00E945E00882369F05D9A5E9A5F9A8F
:1001200082E00E9453008111FBCF5F9883E08093AF
:1001300001010895109201015D985E985F980895FD
:1001400082E0809301015D9A5E9A089581E0809338
:1001500001015D9A5E98089588EE8AB98CE18BB9A9
:10016000E9E6F0E0808183608083E89AEEE6F0E0E3
:10017000808181608083A89A16BC85E085BD089542
:100180001AB817B814B815B818B884E08BB983B783
:10019000817F866083BFF89483B7816083BF789442
:1001A000889583B78E7F83BF0E94AC002FEF80E7D6
:1001B00092E0215080409040E1F700C00000089597
:1001C0001F920F920FB60F9211248F938FEF80938F
:1001D00000018F910F900FBE0F901F9018951F92E6
:1001E0000F920FB60F9211248F93809100018823F4
:1001F00029F0809100018150809300018F910F9030
:100200000FBE0F901F9018950E94AC0078948091BB
:100210000101811106C080910001811102C00E947C
:10022000C00082E00E945E00882389F30E9479006A
:1002300082E00E9453008111FBCFE9CFF894FFCFF9
:00000001FF
