:100000000C9434000C94DD000C9446000C944600D3
:100010000C9446000C9446000C9446000C94460048
:100020000C9446000C9446000C9446000C94460038
:100030000C9446000C9446000C9446000C94460028
:100040000C94EC000C9446000C9446000C94460072
:100050000C9446000C9446000C9446000C94460008
:100060000C9446000C94460011241FBECFEFD8E03C
:10007000DEBFCDBF11E0A0E0B1E001C01D92A23013
:10008000B107E1F70E9401010C9418010C940000E3
:100090002FE788E391E0215080409040E1F700C0D5
:1000A000000081E0089529B130E0082E02C03595A6
:1000B00027950A94E2F720FD14C02FE738E391E07A
:1000C000215030409040E1F700C0000029B130E0FD
:1000D00002C0359527958A95E2F7822F8095817029
:1000E000089580E0089580910101813011F148F177
:1000F000823041F0833061F584E00E945300882310
:1001000039F111C084E00E945300882361F05D9AA8
:100110005E9A5F9A4A9BFECF5F98809101018F5F44
:10012000809301010895109201015D985E985F9897
:100130000895809101018F5F809301015D9A5E9A1D
:100140000895809101018F5F809301015D9A5E980F
:10015000089588EE8AB98CE18BB9E9E6F0E08081F8
:1001600083608083E89AEEE6F0E08081816080839E
:10017000A89A16BC85E085BD08951AB817B814B8BA
:1001800015B818B884E08BB983B7817F866083BFC8
:10019000F89483B7816083BF7894889583B78E7F06
:1001A00083BF0E94A9002FEF80E792E0215080409A
:1001B0009040E1F700C0000008951F920F920FB623
:1001C0000F9211248F938FEF809300018F910F90E6
:1001D0000FBE0F901F9018951F920F920FB60F929F
:1001E00011248F9380910001882329F080910001D0
:1001F0008150809300018F910F900FBE0F901F9040
:1002000018950E94A900789480910101811106C07F
:1002100080910001811102C00E94BD0082E00E9415
:100220005300882389F30E9473004A9BFECFECCFD2
:04023000F894FFCF70
:00000001FF
