:100000000C9434000C9485000C9446000C9446002B
:100010000C9446000C9446000C9446000C94460048
:100020000C9446000C9446000C9446000C94460038
:100030000C9446000C9446000C9446000C94460028
:100040000C9494000C9446000C9446000C944600CA
:100050000C9446000C9446000C9446000C94460008
:100060000C9446000C94460011241FBECFEFD8E03C
:10007000DEBFCDBF21E0A0E0B1E001C01D92A23003
:10008000B207E1F70E9401010C9418010C940000E2
:1000900052985498539A559A569A579A5A9A5C9AE3
:1000A0005B9A5D985E985F98E9E6F0E080818360F6
:1000B0008083E89AEEE6F0E0808181608083A89AF0
:1000C00016BC85E085BD08951AB817B814B81BB8DA
:1000D00015B818B852985A9A83B7817F866083BF43
:1000E000F89483B7816083BF7894889583B78E7FB7
:1000F00083BF0E9448002FEF80E792E021508040AC
:100100009040E1F700C0000008951F920F920FB6D3
:100110000F9211248F938FEF809300018F910F9096
:100120000FBE0F901F9018951F920F920FB60F924F
:1001300011248F9380910001882329F08091000180
:100140008150809300018F910F900FBE0F901F90F0
:10015000189529B130E0082E02C0359527950A94EC
:10016000E2F720FD17C02FE738E391E0215030403F
:100170009040E1F700C0000029B130E002C03595A1
:1001800027958A95E2F72170332781E02827822F6F
:100190008170089580E0089580910101813009F116
:1001A00040F1823041F0833059F584E00E94A9008B
:1001B000882331F110C084E00E94A900882359F0FF
:1001C000809101018F5F809301015D9A5E9A5F9A31
:1001D0004A9BFECF04C0109201015D985E985F9823
:1001E0000895809101018F5F809301015D9A5E9A6D
:1001F0000895809101018F5F809301015D9A5E985F
:1002000008950E944800789480910101811106C0F0
:1002100080910001811102C00E94640082E00E946E
:10022000A900882389F30E94CC004A9BFECFECCF23
:04023000F894FFCF70
:00000001FF
